:100000000C9486050C94CA050C94CA050C94CA0578
:100010000C94CA050C94CA050C94CA050C94CA0524
:100020000C94CA050C94CA050C943E0D0C94100E49
:100030000C94841E0C94CA050C94CA050C94CA0531
:100040000C94CA050C94CA050C94CA050C94CA05F4
:100050000C94CA050C94C21E0C94CA050C94CA05D3
:100060000C94CA050C94CA050C94CA050C94CA05D4
:100070000C94CA050C94CA050C94CA050C94CA05C4
:100080000C94CA050C94CA050C94CA050C94CA05B4
:100090000C94CA050C94CA050C94CA050C94CA05A4
:1000A0000C94CA050C94CA050C94CA05750E970EDB
:1000B000820F970E820FD90EFC0E820F510F640F24
:1000C00072127212A012A012F5120A150A150A1560
:1000D00031130A1528142814E4140A150A15F81403
:1000E000B322E1221A21CA23CA236822CA23CA23BF
:1000F0000D23CA2320239523CA23CA23CA23CA2334
:100100006A235123CA233A23CA23FA22CA23CA23C1
:10011000C423C423C423C423C423C423C423C423A7
:10012000C423C223CA23C223CA23CA23CA23CA237D
:10013000CA23CA23CA23CA23CA23CA23CA23C2235F
:10014000CA23CA2368224922C623C623C623C6233C
:10015000C623C623C623C623C623C623C623C62357
:10016000A723CA23CD22016202620162026200F16A
:10017000A1018A028A048A291E1F20212223242504
:1001800026272D2E2A2B141A0815171C180C1213AB
:100190002F303139041607090A0B0D0E0F333400C6
:1001A00028E1001D1B0619051110363738C0E5E09F
:1001B000E2E300002C00000000E6C0E7E4353A3B33
:1001C0003C3D3E3F4041424344454C010152010108
:1001D00001B2014901464748010150514F01010157
:1001E0000101014A4B000101000165C1C2C3AAA976
:1001F000A84D4E01010101010000010000000001B5
:10020000010101353A3B3C3D3E3F404142434445BC
:100210004C00000000000000000000520000000040
:10022000000000000000000050514F0000000000DE
:1002300000C1C2C300000000000000010101000075
:100240000100000000010101010A00253031366281
:10025000003A200025303258000A722F63203031D6
:1002600032333435363738394142434445460A0043
:100270000A002530325800626F756E6365213A209E
:10028000005B735D004B6579626F6172642073740B
:100290006172742E0A0055534220636F6E6669675F
:1002A000757265642E0A005B575D005B535D005BF1
:1002B000525D005B445D005B435D000C0341004DFB
:1002C000004A003600300000001203480061006E52
:1002D0000020004300680065006E00000004030970
:1002E0000409027400040100A032090400000103A3
:1002F000010100092111010001223F0007058103CE
:1003000008000A090401000103000000092111018D
:1003100000012236000705820308000A09040200D2
:10032000020300000009211101000122200007053D
:1003300083032000010705030320000109040300D3
:100340000103000000092111010001223900070505
:1003500084031000011201100100000008EDFE6688
:100360006001000102000105010906A1010507194C
:10037000E029E71500250195087501810205081996
:1003800001290595057501910295017503910105F6
:10039000071900297715002501957875018102C09C
:1003A0000631FF0974A1010975150025FF95207517
:1003B0000881020976150025FF952075089102C075
:1003C00005010980A101850216010026B7001A0166
:1003D000002AB700751095018100C0050C0901A124
:1003E000018503160100269C021A01002A9C027551
:1003F0001095018100C005010906A101050719E05A
:1004000029E71500250195087501810295017508F8
:1004100081010508190129059505750191029501CC
:10042000750391010507190029FF150025FF9506A1
:1004300075088100C00A002530325820006B6579AC
:10044000626F6172645F7265706F72743A20000A45
:100450000025303258006B6579626F6172645F739A
:1004600065745F6C65643A200064656C5F6B6579E8
:100470005F6269743A2063616E27742064656C3A28
:1004800020253032580A006164645F6B65795F62D1
:1004900069743A2063616E2774206164643A202590
:1004A0003032580A00646F6E652E0A00626F6F6703
:1004B0006D61676963207363616E3A202E2E2E2072
:1004C000003F000A5175697420436F6E736F6C654D
:1004D000204D6F64650A00433E20000A0025750028
:1004E00020746F20002575007377697463685F64FA
:1004F000656661756C745F6C617965723A20004560
:1005000053432F713A09717569740A000A0A2D2D37
:100510002D2D2D20436F6E736F6C652048656C70B8
:10052000202D2D2D2D2D0A00506175733A096A7505
:100530006D7020746F20626F6F746C6F6164657290
:100540000A00436170733A094C6F636B204B657905
:10055000626F617264284368696C642050726F6FC7
:1005600066290A00505363723A09706F77657220EA
:10057000646F776E2F72656D6F74652077616B6540
:100580002D75700A00342F46343A09737769746305
:100590006820746F204C6179657234200A00332F13
:1005A00046333A0973776974636820746F204C612D
:1005B00079657233200A00322F46323A097377691F
:1005C00074636820746F204C6179657232200A0070
:1005D000312F46313A0973776974636820746F204C
:1005E0004C6179657231200A00302F4631303A096A
:1005F00073776974636820746F204C617965723019
:10060000200A006E3A09746F67676C65204E4B5282
:100610004F0A00653A097072696E742065657072E0
:100620006F6D20636F6E6669670A00733A097072B6
:10063000696E74207374617475730A00743A09707A
:1006400072696E742074696D657220636F756E7463
:100650000A00763A097072696E742064657669637F
:10066000652076657273696F6E202620696E666FED
:100670000A006D3A09746F67676C65206D6F75735A
:10068000652064656275670A006B3A09746F676775
:100690006C65206B6579626F617264206465627558
:1006A000670A00783A09746F67676C65206D61743A
:1006B0007269782064656275670A00643A09746F2C
:1006C00067676C6520646562756720656E61626C42
:1006D000650A00633A09656E74657220636F6E7314
:1006E0006F6C65206D6F64650A000A0A2D2D2D2D33
:1006F0002D20436F6D6D616E642048656C70202DF8
:100700002D2D2D2D0A000A002575002E6E6B726F9F
:100710003A20000A002575002E737761705F6261D0
:10072000636B736C6173685F6261636B7370616349
:10073000653A20000A002575002E737761705F67A7
:10074000726176655F6573633A20000A0025750063
:100750002E6E6F5F6775693A20000A002575002EBE
:10076000737761705F72616C745F726775693A204C
:10077000000A002575002E737761705F6C616C74E0
:100780005F6C6775693A20000A002575002E636169
:1007900070736C6F636B5F746F5F636F6E74726F97
:1007A0006C3A20000A002575002E737761705F6334
:1007B0006F6E74726F6C5F636170736C6F636B3AB2
:1007C00020000A0025303258006B65796D61705F3A
:1007D000636F6E6669672E7261773A20000A0025A2
:1007E00075002E6D6F7573653A20000A002575003F
:1007F0002E6B6579626F6172643A20000A0025757C
:10080000002E6D61747269783A20000A0025750027
:100810002E656E61626C653A20000A002530325800
:100820000064656275675F636F6E6669672E7261EB
:10083000773A20000A0025750064656661756C745E
:100840005F6C617965723A20003F004E4B524F3A1F
:100850002064697361626C65640A004E4B524F3AC2
:1008600020656E61626C65640A006B6579626F6118
:1008700072645F69646C653A2025580A006B65797B
:10088000626F6172645F70726F746F636F6C3A2035
:1008900025580A00686F73745F6B6579626F6172C7
:1008A000645F6C65647328293A2025580A000A0A97
:1008B0002D2D2D2D2D20537461747573202D2D2D0C
:1008C0002D2D0A0074696D65725F636F756E743AE1
:1008D000202530346C580A004743433A20342E38E0
:1008E0002E31204156522D4C4942433A20312E3868
:1008F0002E3073766E204156525F415243483A2063
:10090000617672350A004F5054494F4E533A204C8D
:1009100055464120424F4F544D4147494320455889
:100920005452414B455920434F4E534F4C45204361
:100930004F4D4D414E44204E4B524F20364B524F5F
:1009400020343039360A004255494C443A20323579
:1009500064383063362D6469727479202831373AEF
:1009600034343A3338204A756C20323820323031F2
:1009700036290A005649443A2030784645454428ED
:1009800048616E204368656E29205049443A203002
:10099000783630363628414D4A3630292056455271
:1009A0003A203078303030310A00444553433A2001
:1009B000742E6D2E6B2E206B6579626F61726420D0
:1009C0006669726D7761726520666F7220414D4A6B
:1009D00036300A000A0A2D2D2D2D2D2056657273F2
:1009E000696F6E202D2D2D2D2D0A000A444542558C
:1009F000473A206D6F7573652064697361626C6539
:100A0000642E0A000A44454255473A206D6F7573BB
:100A10006520656E61626C65642E0A000A44454279
:100A200055473A206B6579626F617264206469731F
:100A300061626C65642E0A000A44454255473A20BB
:100A40006B6579626F61726420656E61626C65646A
:100A50002E0A000A44454255473A206D6174726976
:100A6000782064697361626C65642E0A000A4445EB
:100A70004255473A206D617472697820656E6162F3
:100A80006C65642E0A000A44454255473A20656E5B
:100A900061626C65642E0A000A44454255473A205B
:100AA00064697361626C65642E0A006E6F742073F2
:100AB0007570706F727465642E0A000A0A4A756D4B
:100AC0007020746F20626F6F746C6F616465722E3A
:100AD0002E2E2000433E20000A456E74657220438E
:100AE0006F6E736F6C65204D6F64650A00556E6C98
:100AF0006F636B65642E0A004C6F636B65642E0A2E
:100B0000006565636F6E6669673A0A0011241FBE4F
:100B1000CFEFDAE0DEBFCDBF04B603FE24C0809184
:100B2000CB019091CC01A091CD01B091CE01873045
:100B3000904BA740B04BB9F41092CB011092CC016E
:100B40001092CD011092CE0114BE84B7877F84BF6E
:100B500088E10FB6F89480936000109260000FBE99
:100B6000E0E0F8E3099511E0A0E0B1E0E6E1F9E4A6
:100B700002C005900D92A432B107D9F721E0A4E29A
:100B8000B1E001C01D92AB3CB207E1F70E94760ACA
:100B90000C9489240C940000FF93EF93E0912401BE
:100BA000F0912501309709F00995EF91FF91089593
:100BB000FC018591803011F0EFDFFBCF0895FF2716
:100BC000E0E230E247FF0CC0419597FF09C0EDE23B
:100BD0006095709580959095611D711D811D911D89
:100BE00027FF02C0219530E350E2AA27660F771F46
:100BF000881F991FAA1FA41710F0A41B63955A956C
:100C0000A9F7AA3008F0A95FA05DAF93F39561152D
:100C100071058105910541F7ED3211F4EF93F395DC
:100C2000F21718F43F93F395FBCF8F91B5DFFA9548
:100C3000E1F70895E991F9918591803021F08532AD
:100C400019F0AADFF9CF089520E0E89455915532C4
:100C5000C1F3503311F4689455915A3348F450530A
:100C600090F3220F022E220F220F200D250FF4CF1A
:100C70000EF4219589919991533619F3533729F13F
:100C8000533559F1BC0188279927E8945C3621F443
:100C90008991999168945591543639F446EF7EF0D4
:100CA00077FF0DC08FEF9FEF0AC055374AE039F04C
:100CB000583540E121F0523642E009F00895FF93A3
:100CC000EF937DDFEF91FF91B7CFFF93EF93FC019F
:100CD00081918030B9F360DFFBCFFF93EF9368DF42
:100CE000F1CFDF93CF93CDB7DEB72596A3DFCF91BA
:100CF000DF91089508950895611107C0FC01828174
:100D0000882319F086E691E0089580E090E0089548
:100D10009EE0799FF001112496E4899FE00DF11D7A
:100D20001124E60FF11DE958FE4F84910895E82F34
:100D3000F0E0EE0FFF1FE151F0408591949108958E
:100D400080B38F7080BB81B38F7081BB55985D98E5
:100D5000089580E885BF85BF0E94A00687B18F7384
:100D600087B988B1806C88B96E98769A80B38C7F89
:100D700080BB81B3836081BB8AB18F728AB98BB12A
:100D8000806D8BB984B1847484B985B18B6B85B95E
:100D9000E0E3F1E0A6E2B1E0119211921D921D9202
:100DA00081E0EA33F807C1F70895AF92BF92CF927E
:100DB000EF92FF920F931F93CF93DF93C6E2D1E0A0
:100DC00010E001E0A5E0CA2EB2E7EB2EB2E0FB2E68
:100DD000123071F018F4113041F004C0133059F0A2
:100DE000143061F0879A8F980BC0869A8E9808C04D
:100DF000859A8D9805C0849A8C9802C0559A5D9802
:100E000080EA8A95F1F78FB18695802780FBAA2426
:100E1000A0F8B12C789B03C020E030E002C022E0B3
:100E200030E02A293B29669B03C080E090E002C0A5
:100E300084E090E0282B392B86B1992787FD909587
:100E4000809590958827990F881F9927F3E0880F40
:100E5000991FFA95E1F7282B392B369B03C040E008
:100E600050E002C040E150E0242B352B189B03C01A
:100E700040E050E002C040E250E0242B352B4C9B78
:100E800003C080E090E002C080E490E0282B392B82
:100E9000199B03C080E090E002C080E890E0282B1E
:100EA000392B83B1992787FD909580959095882758
:100EB000990F881F9927982F8827282B392B1D9B3E
:100EC00003C080E090E002C080E092E0282B392B44
:100ED0001C9B03C080E090E002C080E094E0282BDF
:100EE000392B89B1992787FD909580959095882712
:100EF000990F881F9927982F8827990F990F990F75
:100F0000282B392B4E9B03C080E090E002C080E08C
:100F100090E1282B392B1B9B03C080E090E002C09E
:100F200080E090E2282B392B8881998182179307E2
:100F300041F13983288380910001882301F1809158
:100F4000B40180FF04C087E792E00E94D805809139
:100F5000B40180FF0CC0809100011F928F93FF921B
:100F6000EF920E9471060F900F900F900F9080915A
:100F7000B40180FF04C080E792E00E94D805C092CF
:100F800000010E94A0061F5F2296153009F020CFB5
:100F9000809100018823C1F0815080930001882353
:100FA00039F08FE99FE00197F1F700C000000CC015
:100FB000A0E3B1E0E6E2F1E0819191918D939D9300
:100FC00091E0E033F907C1F781E0DF91CF911F9104
:100FD0000F91FF90EF90CF90BF90AF900895E82FC2
:100FE000F0E0EE0FFF1FE05DFE4F808191810895DC
:100FF000CF92DF92EF92FF920F931F93CF93DF93E5
:1010000089E592E00E94D80520E3E22E21E0F22E4D
:10101000C0E0D0E034E5C32E32E0D32E0BE412E082
:10102000DF93CF93DF92CF920E94710681E592E029
:101030000E94D805F701819191917F010E942D1E98
:101040009F938F931F930F930E94710689E492E000
:101050000E94D80521968DB79EB708960FB6F894D2
:101060009EBF0FBE8DBFC530D105D1F6DF91CF91A8
:101070001F910F91FF90EF90DF90CF90089581FF27
:1010800002C0229A01C022982A98089580914B01AB
:10109000089508959091C201943009F04DC0909147
:1010A000E9009F702091EC0020FF02C020E801C001
:1010B00020E0292B93E09093E9009091EB0090FFC2
:1010C00038C09091EE0097FF34C090913A01992377
:1010D00021F09091E80095FF2CC010923A0196E023
:1010E0003091E80035FD15C03091C201343009F56A
:1010F0003091EB0035FD1DC0915021F481E08093CB
:101100003A0117C0EFE9FFE03197F1F700C00000A6
:10111000E7CF8093F1008091E80085FD05C08091C4
:10112000E8008E778093E8002F702093E90080E03C
:1011300008952F702093E9008FEF0895CF93DF93E8
:1011400000D01F92CDB7DEB72091C201243021F527
:1011500023E029839B838A8382E08093E9008FEFD9
:101160009091E800815095FD06C095ED9A95F1F7B4
:1011700000008111F5CF8091E80085FF0DC040E0AF
:1011800050E063E070E0CE0101960E94310B809147
:10119000E8008E778093E8000F900F900F90DF911A
:1011A000CF910895CF93DF9300D01F92CDB7DEB7D4
:1011B0002091C201243019F522E029839B838A8380
:1011C0002093E9008FEF9091E800815095FD06C0D3
:1011D00095ED9A95F1F700008111F5CF8091E80027
:1011E00085FF0DC040E050E063E070E0CE01019665
:1011F0000E94310B8091E8008E778093E8000F9079
:101200000F900F90DF91CF910895CF93DF93EC0172
:101210008091C201843009F042C090910C01992361
:10122000B9F08093E9008FEF9091E800815095FD2F
:1012300006C095E19A95F1F700008111F5CF8091F4
:10124000E80085FF2CC040E050E060E170E017C08E
:1012500081E08093E9008FEF9091E800815095FD47
:1012600006C095ED9A95F1F700008111F5CF8091B8
:10127000E80085FF14C040E050E068E070E0CE0177
:101280000E94310B8091E8008E778093E80080E126
:10129000FE01ABE3B1E001900D928A95E1F7DF9199
:1012A000CF91089587EB92E00E94D8058091C1010B
:1012B000811109C00E94C30C0E94200D8091E200A0
:1012C00084608093E200089583EB92E00E94D80549
:1012D0001092C10108958FEA92E00C94D8058BEA30
:1012E00092E00E94D8050C947B0687EA92E00E9467
:1012F000D8050C94821E8091C201843049F58091FA
:10130000E9008F709091EC0090FF02C090E801C05E
:1013100090E0982B83E08093E9008091EB0080FFC0
:1013200014C08091EE0087FF10C08091E80085FF17
:1013300003C01092F100F9CF8091E80080FF05C052
:101340008091E8008E778093E8009F709093E90089
:10135000089542E061EC81E00E943D0C42E061ECC6
:1013600082E00E943D0C46E261EC83E00E943D0C6D
:1013700042E161EC84E00C943D0C8091C401833027
:1013800009F455C030F4813071F0823009F495C011
:1013900008958A3009F481C08B3009F460C0893027
:1013A00009F0A3C020C08091C301813A09F09DC01B
:1013B0008091E800877F8093E8008091C701909139
:1013C000C801892B21F060E080E090E003C060E17B
:1013D0008BE391E070E00E947A0B8091E8008B77BC
:1013E0008093E80008958091C301813209F07DC0A7
:1013F0008091C7019091C801009719F0039709F0F7
:1014000074C08091E800877F8093E8008091E800B5
:1014100082FD05C08091C2018111F8CF66C0809124
:10142000F10080934B018091E8008B775AC0809146
:10143000C301813A09F059C08091C7019091C80158
:10144000892B09F052C08091E800877F8093E800E3
:101450008091E80080FFFCCF80910B013DC080911E
:10146000C301813209F041C08091C7019091C80148
:10147000892BD9F58091E800877F8093E8000E944E
:10148000720C9091C50181E0911101C080E08093C0
:101490000B0180930C010C9427158091C3018132BC
:1014A00021F58091E800877F8093E8000E94720C0C
:1014B0008091C60180934C0108958091C301813AC7
:1014C000A1F48091E800877F8093E8008091E80094
:1014D00080FFFCCF80914C018093F1008091E80067
:1014E0008E778093E8000C94720C089584B7877F00
:1014F00084BF88E10FB6F89480936000109260007A
:101500000FBE90E080E80FB6F8948093610090934E
:1015100061000FBE0E94C30C0E94200D8091E2006A
:1015200084608093E2008AE498E00E94C31D78946E
:101530008091C2018430E1F786E992E00E94D805EB
:101540000E94211081E091E00E949A0F85E892E0CC
:101550000E94D8058091C201853089F481E892E02B
:101560000E94D8050E94471E8091C001882391F3F4
:101570000E946D1E882371F30E941B0BEBCF0E940B
:101580004F10E8CF292F332723303105A9F06CF411
:101590002130310509F442C02230310509F043C041
:1015A00084E790E021EE32E042C021323105C9F0FB
:1015B0002232310519F137C099278130910541F068
:1015C0008230910541F0892B71F5EDEDF2E005C017
:1015D000E9ECF2E002C0EBEBF2E0849190E09F01D5
:1015E00026C0643000F5E62FF0E0EE0FFF1FE55E49
:1015F000FE4F2081318189E090E019C0643098F479
:10160000E62FF0E0DF01AA0FBB1FAD5EBE4F2D91AC
:101610003C91E15FFE4F808190E009C082E190E063
:1016200025E533E004C080E090E020E030E0FA01FE
:1016300031832083089580E189BD82E189BD09B4A9
:1016400000FEFDCF8091D8008F7D8093D8008091DF
:10165000E00082608093E0008091E00081FDFCCF9B
:101660000895CF92DF92EF92FF920F931F93CF9343
:10167000DF937C018B01EA010E94930C811131C040
:10168000209731F088819981081B190BE80EF91E0B
:10169000C12CD12C0115110519F18091E80085FDAF
:1016A00014C08091E8008E778093E800209741F085
:1016B000888199818C0D9D1D9983888385E011C057
:1016C0000E94930C882331F30CC0F70181917F01B4
:1016D0008093F10001501109FFEFCF1ADF0ADACF32
:1016E00080E0DF91CF911F910F91FF90EF90DF90FD
:1016F000CF9008952091C9013091CA01261737076C
:1017000048F06115710539F42091E8002E77209397
:10171000E80001C0B901FC0120E061157105B9F1D3
:101720008091C201882309F440C0853009F43FC08C
:101730008091E80083FD3DC08091E80082FF06C0F3
:101740008091E80082FF26C080E008958091E80043
:1017500080FFE3CF2091F3008091F20090E0922B84
:101760006115710551F08830910538F4219120936D
:10177000F100615071090196F3CF21E0089709F05B
:1017800020E08091E8008E778093E800C6CF211199
:10179000C7CFD6CF8091C201882339F0853039F088
:1017A0008091E80083FFCCCF04C082E0089583E0FD
:1017B000089581E008952091C9013091CA0126174A
:1017C000370748F06115710539F42091E8002E774C
:1017D0002093E80001C0B901FC0120E0611571050A
:1017E000C1F18091C201882309F441C0853009F418
:1017F00040C08091E80083FD3EC08091E80082FFF8
:1018000006C08091E80082FF27C080E008958091A3
:10181000E80080FFE3CF2091F3008091F20090E098
:10182000922B6115710559F08830910540F424918F
:101830002093F1003196615071090196F2CF21E0B9
:10184000089709F020E08091E8008E778093E80007
:10185000C5CF2111C6CFD5CF8091C201882339F0E1
:10186000853039F08091E80083FFCBCF04C082E05F
:10187000089583E0089581E00895982F973058F5F2
:101880009093E900981739F07091EC002091ED00E9
:101890005091F00003C0242F762F50E021FF19C093
:1018A0003091EB003E7F3093EB003091ED003D7FB7
:1018B0003093ED003091EB0031603093EB0070938A
:1018C000EC002093ED005093F0002091EE0027FFF4
:1018D00007C09F5FD3CF8F708093E90081E00895A8
:1018E00080E008958091C30187FD05C08091E800E4
:1018F00080FF0EC012C08091E80082FD05C080917B
:10190000C2018111F8CF08958091E8008B7708C05B
:101910008091C2018111EACF08958091E8008E770D
:101920008093E80008958091E4009091E50045E6F9
:101930002091EC0020FF21C02091E80020FD21C073
:101940002091C201222389F0253089F02091EB00FB
:1019500025FD0FC02091E4003091E50028173907DC
:1019600039F3415041F0C901E3CF82E0089583E0AB
:10197000089581E0089584E008952091E80022FF11
:10198000DFCF80E008950E94310D0E94390DE0EE16
:10199000F0E0808181608083E8EDF0E080818F77E6
:1019A000808319BCA7EDB0E08C918E7F8C938081F1
:1019B0008F7E80831092C10108950F931F93CF9360
:1019C000DF930E94310D0E94390DC8EDD0E088816F
:1019D0008F77888388818068888388818F7D8883DA
:1019E00019BC1092C2011092BE011092C001109257
:1019F000BF0100EE10E0F80180818B7F8083888139
:101A00008160888342E060E080E00E943D0CE1EE6E
:101A1000F0E080818E7F8083E2EEF0E08081816063
:101A20008083808188608083F80180818E7F8083BD
:101A3000888180618883DF91CF911F910F910895F4
:101A4000E8EDF0E080818F7E8083E7EDF0E080813B
:101A50008160808384E082BF81E08093C1010C9427
:101A6000DD0CE8EDF0E080818E7F80831092E20053
:101A700008951092DA001092E10008951F920F92DB
:101A80000FB60F9211242F933F934F935F936F9351
:101A90007F938F939F93AF93BF93EF93FF93809127
:101AA000E10082FF0BC08091E20082FF07C08091BD
:101AB000E1008B7F8093E1000E947B098091DA0036
:101AC00080FF1FC08091D80080FF1BC08091DA008A
:101AD0008E7F8093DA008091D90080FF0DC080E175
:101AE00089BD82E189BD09B400FEFDCF81E080930C
:101AF000C2010E94520905C019BC1092C2010E9485
:101B000064098091E10080FF19C08091E20080FFAC
:101B100015C08091E2008E7F8093E2008091E20008
:101B200080618093E2008091D80080628093D80029
:101B300019BC85E08093C2010E946F098091E10089
:101B400084FF30C08091E20084FF2CC080E189BD19
:101B500082E189BD09B400FEFDCF8091D8008F7D60
:101B60008093D8008091E1008F7E8093E100809186
:101B7000E2008F7E8093E2008091E200816080939A
:101B8000E2008091BE01882311F084E007C08091BB
:101B9000E30087FF02C083E001C081E08093C201BF
:101BA0000E9475098091E10083FF29C08091E200C5
:101BB00083FF25C08091E100877F8093E10082E070
:101BC0008093C2011092BE018091E1008E7F8093CC
:101BD000E1008091E2008E7F8093E2008091E2003C
:101BE00080618093E20042E060E080E00E943D0C72
:101BF0008091F00088608093F0000E946B09FF9153
:101C0000EF91BF91AF919F918F917F916F915F9174
:101C10004F913F912F910F900FBE0F901F901895ED
:101C20001F920F920FB60F9211242F933F934F9351
:101C30005F936F937F938F939F93AF93BF93CF9354
:101C4000EF93FF93C091E900CF708091EC00109268
:101C5000E9008091F000877F8093F00078940E94E3
:101C60004C0E1092E9008091F00088608093F000A3
:101C7000C093E900FF91EF91CF91BF91AF919F91F8
:101C80008F917F916F915F914F913F912F910F9025
:101C90000FBE0F901F9018951F93CF93DF93CDB772
:101CA000DEB7AA970FB6F894DEBF0FBECDBFE3EC48
:101CB000F1E08091F100819321E0EB3CF207C9F75C
:101CC0000E94BD098091E80083FF1CC12091C301DF
:101CD0003091C401832F90E08A30910508F012C141
:101CE000FC01EA5AFF4F0C943E24203881F0223840
:101CF00009F008C18091C7018F708093E90080913D
:101D0000EB0085FB882780F91092E90006C08091DE
:101D1000BF019091C001911182609091E800977F7E
:101D20009093E8008093F1001092F100C5C0822FDB
:101D30008D7F09F0E7C0222319F0223061F0E2C064
:101D40008091C501813009F0DDC0333009F080E0B9
:101D50008093C00128C08091C501811124C02091C9
:101D6000C7012F7009F4CEC02093E9008091EB00E9
:101D700080FF19C08091EB00333011F4806211C0F4
:101D800080618093EB0081E090E0022E01C0880F1B
:101D90000A94EAF78093EA001092EA008091EB003F
:101DA00088608093EB001092E9008091E800877FC3
:101DB00086C02111A7C01091C5011F778091E30053
:101DC0008078812B8093E3008091E800877F809367
:101DD000E8000E94720C8091E80080FFFCCF8091A7
:101DE000E30080688093E300112311F083E001C0D9
:101DF00082E08093C20186C02058223008F082C061
:101E00008091C5019091C6018C3D23E0920779F540
:101E100083E08A838AE289834FB7F894DE011396C0
:101E200020E03EE051E2E32FF0E050935700E491D0
:101E300020FF03C0E295EF703F5FEF708E2F90E0C0
:101E4000EA3010F0C79601C0C0968D939D932F5F26
:101E5000243149F74FBF8091E800877F8093E800E5
:101E60006AE270E0CE0101960E947A0B14C0AE01C6
:101E70004F5F5F4F6091C7010E94C20A009709F44B
:101E800041C02091E800277F2093E800BC018981B0
:101E90009A810E94DB0B8091E8008B778093E800A9
:101EA00031C0203879F58091E800877F8093E80081
:101EB0008091BE018093F1008091E8008E7780933D
:101EC000E8000E94720C1EC021111CC09091C50137
:101ED0009230C0F48091E800877F8093E80090936F
:101EE000BE010E94720C8091BE01811104C08091DC
:101EF000E30087FF02C084E001C081E08093C2015B
:101F00000E94A9098091E80083FF0AC08091E8003F
:101F1000877F8093E8008091EB0080628093EB00E4
:101F2000AA960FB6F894DEBF0FBECDBFDF91CF915A
:101F30001F910895909352018093510108958091CB
:101F40005101909152010895E0915101F091520197
:101F5000309721F00190F081E02D099480E0089500
:101F6000FF920F931F93CF93DF938C01E091510168
:101F7000F0915201309799F10280F381E02D09959B
:101F80008091B40182FF2BC080FF04C08DE394E0F8
:101F90000E94D805E80180E1F82E07E314E0809163
:101FA000B40180FF0BC088811F928F931F930F9302
:101FB0000E9471060F900F900F900F90FA94219647
:101FC000F110EDCF8091B40180FF09C085E394E06A
:101FD000DF91CF911F910F91FF900C94D805DF9165
:101FE000CF911F910F91FF90089520914F01309153
:101FF00050018217930771F09093500180934F0125
:10200000E0915101F0915201309721F00680F78163
:10201000E02D0994089520914D0130914E018217D1
:10202000930771F090934E0180934D01E09151011F
:10203000F0915201309721F00084F185E02D099450
:1020400008950E94AD1E0E94A9060C94511FCF93C3
:10205000C82F8091B40182FF1EC080FF04C086E5B6
:1020600094E00E94D8058091B40180FF0CC01F92BB
:10207000CF9321E534E03F932F930E9471060F9098
:102080000F900F900F908091B40180FF04C08FE4F7
:1020900094E00E94D8058C2FCF910C943F085F925A
:1020A0006F927F928F929F92AF92BF92CF92DF9268
:1020B000EF92FF920F931F93CF93DF93CDB7DEB7CD
:1020C0002A970FB6F894DEBF0FBECDBF0E94D5068B
:1020D00094E5C92E91E0D92E00E010E0AA24A39443
:1020E000B12C502E802F0E94EF073C01F601E190A9
:1020F000F1906F01E826F926E114F104B1F40F5FC5
:102100001F4F0530110569F78FEF89838A831B8282
:102110000E94B61E8160782F9D838C8349815A81ED
:102120006B818D810E947E153AC08091B40181FD42
:102130000E94F80720E030E04501022E02C0880C22
:10214000991C0A94E2F7C4018E219F21892B09F181
:102150002E835F826820792081E0672809F480E07F
:1021600088870E94B61E8160782F9A8789874E8162
:102170005F8168858A850E947E15F801EE0FFF1F3A
:10218000EC5AFE4F80819181882599259183808327
:1021900006C02F5F3F4F2E30310571F6B0CF109142
:1021A00053010E94A40F1817D9F00E94A40F809326
:1021B00053012A960FB6F894DEBF0FBECDBFDF9154
:1021C000CF911F910F91FF90EF90DF90CF90BF9034
:1021D000AF909F908F907F906F905F900C9427109E
:1021E0002A960FB6F894DEBF0FBECDBFDF91CF9118
:1021F0001F910F91FF90EF90DF90CF90BF90AF9025
:102200009F908F907F906F905F900895CF93C82F8D
:10221000882309F4C1C0823859F40E94A40F81FDBB
:10222000BBC089E30E94D21A0E947B1C89E30CC0C8
:10223000833879F40E94A40F80FDAEC083E50E942C
:10224000D21A0E947B1C83E50E94A31BCF910C94A1
:102250007B1C843859F40E94A40F82FD9DC087E442
:102260000E94D21A0E947B1C87E4EECF8CEF8C0F69
:10227000813A48F48C2F0E94D62381118DC08C2F77
:102280000E94D21AE3CF80E28C0F883048F4C770E6
:1022900081E001C0880FCA95EAF70E944D1CD6CF95
:1022A0008BE58C0F833078F4C53A29F0C63A31F4C7
:1022B00082E890E005C081E890E002C083E890E009
:1022C000CF910C94F50F88E58C0F833108F064C032
:1022D000C83A39F1C93A41F1CA3A49F1CB3A51F118
:1022E000CC3A59F1CD3A61F1C03B69F1CE3A71F186
:1022F000CF3A79F1C13B81F1C23B89F1C33B91F106
:10230000C43B99F1C53BA1F1C63BA9F1C73BB1F173
:10231000C83BB9F1C93BC1F1CA3BC9F58AE292E0B9
:1023200038C082EE90E035C089EE90E032C08AEE8F
:1023300090E02FC085EB90E02CC086EB90E029C0A8
:1023400087EB90E026C08CEC90E023C08DEC90E011
:1023500020C083E891E01DC08AE891E01AC082E9BC
:1023600091E017C084E991E014C081E292E011C0CD
:1023700083E292E00EC084E292E00BC085E292E03C
:1023800008C086E292E005C087E292E002C080E0E9
:1023900090E0CF910C940B10CF910895882309F40D
:1023A0004BC0823859F40E94A40F81FF45C089E3D5
:1023B0000E94D21A0E947B1C89E30CC0833871F4FE
:1023C0000E94A40F80FF38C083E50E94D21A0E94A9
:1023D0007B1C83E50E94A31B0C947B1C843859F45E
:1023E0000E94A40F82FF28C087E40E94D21A0E9494
:1023F0007B1C87E4EFCF9CEF980F913A58F390E263
:10240000980F983050F4877091E001C0990F8A9529
:10241000EAF7892F0E94531CDFCF9BE5980F93307A
:1024200020F480E090E00C94F50F885A833120F47A
:1024300080E090E00C940B100895882321F00E9416
:102440004D1C0C947B1C0895882321F00E94531C82
:102450000C947B1C0895CF92DF92EF92FF920F9322
:102460001F93CF93DF93CDB7DEB728970FB6F894BD
:10247000DEBF0FBECDBF8C0185E0F801DE011196F5
:1024800001900D928A95E1F7F80140813181F28047
:10249000258122952F7083819481892B31F03F3FD4
:1024A00031F481E04F3F19F403C081E001C080E0C6
:1024B00080FDB0C249833A8389819A812F830E942B
:1024C000901A9E8388870E948F1A0E9462194E81FB
:1024D000E42FE295EF70F0E0E05AFF4F2F8168851E
:1024E0000C943E24842F807F142F1F70882311F0BA
:1024F0001295107FFF2059F0112309F440C2812F5B
:1025000068870E945D1C0E947B1C688538C2862FEC
:102510000E94CE11112309F47DC2812F0E94631CF9
:1025200028960FB6F894DEBF0FBECDBFDF91CF91D6
:102530001F910F91FF90EF90DF90CF900C947B1C38
:10254000342F307F842F8F70303211F08295807F4E
:10255000662319F0613009F12AC0FF20A1F022237F
:1025600081F1213071F528960FB6F894DEBF0FBEC9
:10257000CDBFDF91CF911F910F91FF90EF90DF9032
:10258000CF900C946D1C222319F0213009F442C223
:102590008E830E94701C8E8176C1FF2021F0263030
:1025A00008F038C20EC0253008F034C26CC1FF20DC
:1025B000C1F0222331F0F801958190FFE0C19F70B6
:1025C000958328960FB6F894DEBF0FBECDBFDF917E
:1025D000CF911F910F91FF90EF90DF90CF900C94CF
:1025E0001D12222309F44FC1DEC1242F2695269502
:1025F000237030E02115310521F021303105C9F07B
:1026000009C2FF2021F0862F942F937002C080E032
:1026100090E028960FB6F894DEBF0FBECDBFDF91D5
:10262000CF911F910F91FF90EF90DF90CF900C947E
:10263000F50FFF2021F0862F942F937002C080E0C9
:1026400090E028960FB6F894DEBF0FBECDBFDF91A5
:10265000CF911F910F91FF90EF90DF90CF900C944E
:102660000B10842F837009F076C0F110D3C1262F90
:10267000229526952770220F220F862F8F70C82E45
:10268000D12CE12CF12C022E04C0CC0CDD1CEE1C54
:10269000FF1C0A94D2F764FF10C06FE070E080E086
:1026A00090E004C0660F771F881F991F2A95D2F704
:1026B000609570958095909503C060E070E0CB01C7
:1026C000242F269526952370422F50E04230510545
:1026D000D1F04330510559F16C297D298E299F296C
:1026E0004130510541F128960FB6F894DEBF0FBE78
:1026F000CDBFDF91CF911F910F91FF90EF90DF90B1
:10270000CF900C9487196C297D298E299F292896B2
:102710000FB6F894DEBF0FBECDBFDF91CF911F91F2
:102720000F91FF90EF90DF90CF900C94A1190E9431
:102730008719C701B60128960FB6F894DEBF0FBE01
:10274000CDBFDF91CF911F910F91FF90EF90DF9060
:10275000CF900C946D19FF2019F0842F817001C067
:102760008695882309F456C1262F22952695277031
:10277000220F220F862F8F70C82ED12CE12CF12C26
:10278000022E04C0CC0CDD1CEE1CFF1C0A94D2F7F8
:1027900064FF10C06FE070E080E090E004C0660F5E
:1027A000771F881F991F2A95D2F76095709580959D
:1027B000909503C060E070E0CB01242F269526950C
:1027C0002370422F50E042305105D1F04330510583
:1027D00059F16C297D298E299F294130510541F1FC
:1027E00028960FB6F894DEBF0FBECDBFDF91CF9114
:1027F0001F910F91FF90EF90DF90CF900C945B1A98
:102800006C297D298E299F2928960FB6F894DEBF62
:102810000FBECDBFDF91CF911F910F91FF90EF9031
:10282000DF90CF900C94751A0E945B1AC701B60115
:1028300028960FB6F894DEBF0FBECDBFDF91CF91C3
:102840001F910F91FF90EF90DF90CF900C94411A61
:10285000603F49F118F4603E48F48CC0623F09F4CF
:1028600051C0E0F1633F09F461C084C0162F1F70AE
:10287000842F8F71FF2021F00E94DA19812FA1CEC1
:102880000E94FB19812F28960FB6F894DEBF0FBE69
:10289000CDBFDF91CF911F910F91FF90EF90DF900F
:1028A000CF900C942412FF20A9F0253008F0B2C07C
:1028B000842F8F7128960FB6F894DEBF0FBECDBF60
:1028C000DF91CF911F910F91FF90EF90DF90CF900C
:1028D0000C94201A263008F09DC0EACFFF20A1F00A
:1028E000842F8F7128960FB6F894DEBF0FBECDBF30
:1028F000DF91CF911F910F91FF90EF90DF90CF90DC
:102900000C94DA19FF2061F3842F8F7128960FB68B
:10291000F894DEBF0FBECDBFDF91CF911F910F9115
:10292000FF90EF90DF90CF900C94FB19FF2091F077
:10293000842F8F7128960FB6F894DEBF0FBECDBFDF
:10294000DF91CF911F910F91FF90EF90DF90CF908B
:102950000C94C51928960FB6F894DEBF0FBECDBFF4
:10296000DF91CF911F910F91FF90EF90DF90CF906B
:102970000C94BB19FF20A1F0222309F4B1CF862FBC
:1029800028960FB6F894DEBF0FBECDBFDF91CF9172
:102990001F910F91FF90EF90DF90CF900C94061154
:1029A000222309F4B1CF862F28960FB6F894DEBF04
:1029B0000FBECDBFDF91CF911F910F91FF90EF9090
:1029C000DF90CF900C94CE114F70C8010E947C060E
:1029D00028960FB6F894DEBF0FBECDBFDF91CF9122
:1029E0001F910F91FF90EF90DF90CF900C94E4181F
:1029F0004F70C80128960FB6F894DEBF0FBECDBF4A
:102A0000DF91CF911F910F91FF90EF90DF90CF90CA
:102A10000C94C21D28960FB6F894DEBF0FBECDBF32
:102A2000DF91CF911F910F91FF90EF90DF90CF90AA
:102A300008950E946A1C0E943F1C0E947B1C80E03B
:102A400090E00E94F50F80E090E00C940B100E9443
:102A50005A1C0C9419150E94901A292F22952F7038
:102A600030E02C3031054CF42A3031056CF4225022
:102A700031092230310590F407C02C30310551F076
:102A80002F30310539F00AC0803E10F0803F31F41C
:102A900081E0089593FB882780F9089580E00895E8
:102AA000CF93DF9300D000D01F92CDB7DEB70F9049
:102AB0000F900F900F900F90DF91CF910895CF93CB
:102AC000DF9300D000D000D0CDB7DEB726960FB68A
:102AD000F894DEBF0FBECDBFDF91CF910895CF93A5
:102AE000DF9300D000D01F92CDB7DEB70F900F90CC
:102AF0000F900F900F90DF91CF910895CF93DF93B8
:102B0000CDB7DEB72B970FB6F894DEBF0FBECDBFA3
:102B10004F83588769877A878B87DE01119686E015
:102B2000FD0111928A95E9F785E0FE013796019043
:102B30000D928A95E1F74F81588569857A858B8555
:102B40000E946F1549815A816B817C818D819E81A4
:102B50000E9437182B960FB6F894DEBF0FBECDBF7C
:102B6000DF91CF9108951F93CF93DF93C0915E01C2
:102B700016E080915F01C81799F0D0E01C9FF0012A
:102B80001D9FF00D1124E05AFE4F4081518162815A
:102B90007381848195810E945F152196C770E9CF6A
:102BA000DF91CF911F910895409190015091910133
:102BB000609192017091930180919401909195019F
:102BC0000C945F15CF938091950182958F7009F0D9
:102BD0005FC080919201882309F45AC020915E0160
:102BE000A0915F016091900170919101809193019A
:102BF0009091940131E06F3F09F030E0B32FC6E0CF
:102C00002A1709F445C0009721F07F3F21F44B2F8C
:102C100003C041E001C040E030E040FD35C0C29F4C
:102C2000F001C39FF00D1124E05AFE4F418174134F
:102C30002BC04081641328C04281411125C04381CB
:102C400054814817590710F441505109481B590B3A
:102C5000483C5105C8F4809195018F708061809344
:102C6000950186E0829FF001839FF00D1124EB59BE
:102C7000FE4F80818F708061808380E991E00E94A7
:102C80002B12CF910C94B3152F5F3F4F2770B8CF05
:102C9000CF910895CF92DF92EF92FF920F931F93FF
:102CA000CF93DF93CDB7DEB762970FB6F894DEBF50
:102CB0000FBECDBF8C0185E0F801DE011D960190AD
:102CC0000D928A95E1F7D8014C9111965C9111977C
:102CD00012966C9112971396ED90FC901497709148
:102CE0009001E0919101209193013091940121157F
:102CF000310531F0EF3F31F481E07F3F19F403C03B
:102D000081E001C080E0B82FB170CB2E80FD6CC196
:102D1000D0909201DD2009F4F5C0F0919501E21602
:102D2000F30638F0C701821B930B883C910548F0ED
:102D30009BC0209530952E0D3F1D283C310508F095
:102D400093C08F2F807F09F052C0E51314C0741315
:102D500012C0D62E61110FC0FF70F061F093950183
:102D60000E94D41580E991E00E942B128091950178
:102D7000F80185836CC1EF2831F05F3F31F481E0C9
:102D80004F3F19F403C081E001C080E080FD03C023
:102D900081E0862701C080E0F82FF170FF2E80FFD0
:102DA0001CC080915E0120915F0136E0821709F41A
:102DB00028C190E0389FF001399FF00D1124E05AAE
:102DC000FE4F7181571306C07081471303C0728193
:102DD000671303C001968770E9CFD62E662309F4E6
:102DE00036C18091950181608093950153C0E513B0
:102DF00008C0741306C0611104C0D8011596FC9375
:102E0000AEC04D875E878D859E856A8B0E942B158F
:102E10006A89882329F1D62E662311F12091950124
:102E2000822F82958F7090E002970CF460C08091A1
:102E300090019091910198878F831986FB86EA868D
:102E40002C87CE01079651C0E51731F14D875E877B
:102E50008D859E856A8B0E942B156A8981112EC0F3
:102E6000C8010E942B12A4C08F2F807F69F77E2D8E
:102E7000F98AE88A89890E94501580E991E00E94C8
:102E80002B12E0E9F1E086E0DF011D928A95E9F777
:102E90000E94D415D12CDBC07413D8CF6111D6CFCA
:102EA000D8011596FC93C8010E942B12E0E9F1E0CD
:102EB00086E0DF011D928A95E9F7C9C0D62E662308
:102EC00079F220919501822F82958F7090E0029780
:102ED00074F080919001909191019A8389831B8273
:102EE000FD82EC822E83CE0101960E942B1286E099
:102EF000F801A0E9B1E001900D928A95E1F70E94F6
:102F0000E2156FC0E216F30628F0C701821B930B8F
:102F10009C0104C0209530952E0D3F1D283C3105A5
:102F200008F052C0D62E662309F49ACFE5132CC0C0
:102F300074132AC08091950180FD1DC0982F929531
:102F40009F70C9F0D80115968C9315979F3039F072
:102F50009F5F9295907F8F70892B15968C93C801F7
:102F60000E942B1286E0F801A0E9B1E001900D92D9
:102F70008A95E1F736C086E0F801A0E9B1E001905A
:102F80000D928A95E1F763C04D875E878D859E859A
:102F90000E942B15882379F086E0F801A0E9B1E0C2
:102FA00001900D928A95E1F70E94E2150E94D415D6
:102FB000DD24D3944CC0809195018160809395016C
:102FC000C8010E942B1243C07E2DF98AE88A8989A4
:102FD0000E945015E0E9F1E086E0DF011D928A953C
:102FE000E9F70E94D41533C0662309F439CF4D8721
:102FF0005E878D859E850E942B15882309F430CF2E
:10300000CBCF4D875E878D859E850E94901A292F94
:1030100022952F7030E0223031052CF49F7041F062
:10302000811106C00CC0243031052CF49F7049F486
:10303000805E883020F0C8010E942B12CF2CDC2C3F
:1030400006C0D80115969C91907F91F7F8CF8D2DF1
:1030500062960FB6F894DEBF0FBECDBFDF91CF9161
:103060001F910F91FF90EF90DF90CF9008951F93E5
:10307000CF93DF93CDB7DEB72C970FB6F894DEBFB2
:103080000FBECDBF4F83588769877A878B879C8710
:10309000CE0107960E944A168823C1F02F813885F9
:1030A0008A859B85892B31F03F3F11F080E003C07A
:1030B0002F3FE1F781E0811147C04F815885698535
:1030C0007A858B859C850E945F153EC086E0FE0157
:1030D0003796DE01119601900D928A95E1F7FF81F6
:1030E000E8854A855B854115510531F0EF3F31F4A4
:1030F00081E0FF3F19F403C081E001C080E080FD62
:1031000023C020915F0130E0C901019687709927A3
:1031100060915E0170E086179707F1F1F983EA8309
:103120005D834C8396E0929FD001939FB00D112454
:10313000A05ABE4FFE01319601900D929A95E1F78B
:1031400080935F010E94B31516E080915E0190911B
:103150005F01891779F1189FC0011124805A9E4F91
:103160000E944A16882331F1E0915E011E9FF00112
:103170001124E05AFE4F4081518162817381848124
:1031800095810E945F1580915E0190E001968770A5
:10319000992780935E01D9CF0E94271510925F0175
:1031A00010925E01E0E9F1E086E0DF011D928A9570
:1031B000E9F7CACF2C960FB6F894DEBF0FBECDBF8D
:1031C000DF91CF911F910895EF92FF920F931F937C
:1031D000CF93DF93FC01009709F46DC0F12CEE242E
:1031E000E394EF0121968491843740F4843008F011
:1031F00053C0813081F0823021F15DC0853709F400
:1032000045C0B0F19CE7980F903708F054C08F7715
:103210000E94CE1143C08F010E5F1F4FFE018491AB
:1032200090E2980F983050F48770FE2D01C0FF0F88
:103230008A95EAF78F2F0E945D1C15C00E94061127
:1032400012C08F010E5F1F4FFE01849190E2980F14
:10325000983058F48770FE2D01C0FF0F8A95EAF769
:103260008F2F0E94631CE80119C00E94CE11FBCF72
:10327000CF010296FE01C491CC2361F0EFE9FFE09B
:103280003197F1F700C00000C150F6CFCF01029690
:10329000FE01F490EC0102C00E9406118F2D8823DC
:1032A00041F0EFE9FFE03197F1F700C000008150F5
:1032B000F6CFFE0196CFDF91CF911F910F91FF9036
:1032C000EF900895089560939A0170939B01809305
:1032D0009C0190939D010C9419150F931F930091DD
:1032E0009A0110919B0120919C0130919D01062B28
:1032F000172B282B392B00939A0110939B012093B5
:103300009C0130939D011F910F910C9419150F93FF
:103310001F9300919A0110919B0120919C01309183
:103320009D01062317232823392300939A01109324
:103330009B0120939C0130939D011F910F910C9450
:1033400019150F931F9300919A0110919B012091E1
:103350009C0130919D0106271727282739270093C4
:103360009A0110939B0120939C0130939D011F9122
:103370000F910C94191510929601109297011092CA
:103380009801109299010C94191541E050E060E009
:1033900070E004C0440F551F661F771F8A95D2F74F
:1033A000409396015093970160939801709399010F
:1033B0000C94191541E050E060E070E004C0440F47
:1033C000551F661F771F8A95D2F7809196019091BD
:1033D0009701A0919801B0919901842B952BA62B70
:1033E000B72B8093960190939701A0939801B09387
:1033F00099010C94191541E050E060E070E004C0C0
:10340000440F551F661F771F8A95D2F74095509538
:10341000609570958091960190919701A091980187
:10342000B091990184239523A623B7238093960115
:1034300090939701A0939801B09399010C9419155A
:1034400041E050E060E070E004C0440F551F661F8B
:10345000771F8A95D2F78091960190919701A0915C
:103460009801B091990184279527A627B7278093C3
:10347000960190939701A0939801B09399010C94B1
:1034800019150F931F9300919601109197012091A8
:10349000980130919901062B172B282B392B00937B
:1034A00096011093970120939801309399011F91F1
:1034B0000F910C9419150F931F9300919601109181
:1034C0009701209198013091990106231723282311
:1034D000392300939601109397012093980130931C
:1034E00099011F910F910C9419150F931F9300913F
:1034F000960110919701209198013091990106272A
:1035000017272827392700939601109397012093B6
:103510009801309399011F910F910C9419150895FA
:10352000CF92DF92EF92FF920F931F93CF93DF938F
:10353000EC01C0909A01D0909B01E0909C01F0902A
:103540009D018091960190919701A0919801B09171
:103550009901C82AD92AEA2AFB2A0FE110E0B7010B
:10356000A601002E04C076956795579547950A9455
:10357000D2F740FF07C0BE01802F0E944F1D81304F
:10358000910539F40150110950F7BE0180E00E9405
:103590004F1DDF91CF911F910F91FF90EF90DF9022
:1035A000CF900895CF92DF92EF92FF920F931F93E7
:1035B000CF93DF93F82E80910C01882349F18F2D52
:1035C0008695869586958F3090F4E0910D01F09167
:1035D0000E01E80FF11D8F2D877021E030E001C052
:1035E000220F8A95EAF78181822B8183A3C0809183
:1035F000B40180FF9FC01F92FF9287E894E09F93E1
:103600008F930E9471060F900F900F900F9092C0B1
:10361000E090B1014091AF01E0910D01F0910E01F8
:10362000442309F472C02091B0018E2D3FEF06E0D3
:1036300010E0A82FBB27A7FDB095EF01CA0FDB1F35
:103640009A819F1509F476C03F3F19F4911101C08A
:10365000382FCD010196C6E0D0E0B8010E942A249F
:103660008213E7CF2E1151C03F3F71F4822F99276B
:1036700087FD90950196BE010E942A248093B10196
:1036800041504093AF0141C0832F992787FD90950A
:103690000196BE010E942A24EE24E394C6E0D0E005
:1036A000082F112707FD10956F01C00ED11ED601FE
:1036B00012966C916623A1F0432F552747FD509534
:1036C000CF01840F951FDC0112966C93D6011296E0
:1036D0001C92CA010196BE010E942A24382F01C003
:1036E000E394C8010196BE010E942A248213D8CF18
:1036F000822F992787FD90958E199109069666E08D
:1037000070E00E942A248093B0012091B0013327F9
:1037100027FD3095E20FF31FF282C901019666E0A2
:1037200070E00E942A248093B0018091AF018F5FE6
:103730008093AF01DF91CF911F910F91FF90EF9098
:10374000DF90CF900895DF92EF92FF920F931F9337
:10375000CF93DF93482F80910C01882351F1842F60
:103760008695869586958F3098F4E0910D01F091BD
:103770000E01E80FF11D477021E030E0042E01C07A
:10378000220F0A94EAF720958181282321836FC0B4
:103790008091B40180FF6BC01F924F9389E694E043
:1037A0009F938F930E9471060F900F900F900F9030
:1037B0005EC0E091B101D090AF01DD2009F457C0A7
:1037C000C0910D01D0910E010091B001112707FDAC
:1037D000109586E0E82EF12CF0E0DE01AE0FBF1F61
:1037E0009D012E5F3F4F12968C91841336C0D901F4
:1037F0001C92DA94D092AF01D11004C01092B101A2
:103800001092B0012091B001822F992787FD9095E9
:10381000059666E070E00E942A24E817F90739F55A
:103820004091B101E6E0F0E0822F992787FD909565
:103830000596BF010E942A249C010596BF010E94A3
:103840002A248C0F9D1FDC0112968C91811102C0DD
:103850002413EACF2093B0010AC0CF010196B7012B
:103860000E942A24E82F8017910709F0B5CFDF9135
:10387000CF911F910F91FF90EF90DF90089581E01D
:1038800090E0E0910D01F0910E01E80FF91F108218
:10389000019680319105A9F708959091B301982B75
:1038A0009093B301089580959091B30198239093DC
:1038B000B30108951092B30108959091B201982B2D
:1038C0009093B201089580959091B20198239093BE
:1038D000B20108951092B201089580939E01089557
:1038E00010929E01089580910C01811103C0809176
:1038F000AF0108950895E0910D01F0910E018091BE
:10390000B3018083E0910D01F0910E0180819091CF
:10391000B201892B808390919E01992361F0E091FF
:103920000D01F0910E018081892B80830E94731C10
:10393000811110929E0180910D0190910E010C94C5
:10394000B00F8D3B60F4883A00F5853AA8F48430D6
:1039500088F4813009F05BC081E090E00895803EFA
:1039600008F455C0883E30F0803F08F450C090E025
:103970009065089590E00895853A09F44BC0863A21
:1039800009F04BC082E890E40895883A09F448C0F1
:10399000893A09F448C08A3A09F448C08B3A09F4D4
:1039A00048C08C3A09F448C08B3B09F448C08C3BB2
:1039B00009F448C08D3A09F448C0803B09F448C076
:1039C0008E3A09F448C08F3A09F448C0813B09F4A3
:1039D00048C0823B09F448C0833B09F448C0843B9B
:1039E00009F448C0853B09F448C0863B09F448C047
:1039F000873B09F448C0883B09F448C0893B09F477
:103A000048C08A3B09F048C08AE296E4089580E005
:103A100090E0089581E890E4089583E890E40895A3
:103A200082EE94E4089589EE94E408958AEE94E495
:103A3000089585EB94E4089586EB94E4089583EB70
:103A400094E4089584EB94E4089587EB94E4089556
:103A50008CEC94E408958DEC94E4089583E895E467
:103A600008958AE895E4089582E995E4089584E943
:103A700095E4089581E296E4089583E296E408953A
:103A800084E296E4089585E296E4089586E296E459
:103A9000089587E296E4089580E094E408950E94F2
:103AA0008806803EA8F4803C00F5813309F45CC0B0
:103AB00038F4893209F452C08A3209F45BC05FC01D
:103AC0008933B1F08238A1F0853309F441C057C081
:103AD000833E41F128F4803E99F0823EB9F04FC018
:103AE000863E31F1873E71F14AC00E9497060895E3
:103AF0009091BD0190FD02C091FF41C080EE3FC09A
:103B00008091BD0180FFFACF89E339C08091BD016A
:103B100082FF0CC08091BD0184FF02C080E02FC0F5
:103B200083EE2DC08091BD0182FFF4CF82EE27C0CD
:103B30008091BD0183FF0AC08091BD0184FDEECF5D
:103B400087EE1DC08091BD0183FFF6CF86EE17C0C2
:103B50008091BD0185FF06C089E211C08091BD0141
:103B600085FFFACF85E30BC08091BD0186FF06C0BB
:103B70008AE205C08091BD0186FFFACF81E30E94F1
:103B8000A11C089508959093250180932401089520
:103B9000CF92DF92EF92FF920F931F936C01EE246E
:103BA000FF24C114D104E104F10421F46B017C0170
:103BB00080E001C080E133272F2D1E2D0D2D011532
:103BC00011052105310519F0885F68017901970118
:103BD0008601A4E03695279517950795AA95D1F704
:103BE000011511052105310519F08C5F6801790176
:103BF00097018601F2E03695279517950795FA9576
:103C0000D1F7011511052105310519F08E5F680105
:103C10007901B701A6017695679557954795452B8C
:103C2000462B472B09F08F5F1F910F91FF90EF906C
:103C3000DF90CF9008958295982F9C7C96959695CD
:103C4000837344E0849F90011124922B892F8A7AF8
:103C500086959575990F892B08951F93CF93DF93C0
:103C60001F92CDB7DEB799830E941B1E182F998132
:103C7000892F0E941B1E212F30E0322F2227A901FD
:103C8000482BCA010F90DF91CF911F910895809129
:103C9000C201843009F11092B50120E488E190E07E
:103CA0000FB6F894A895809360000FBE2093600033
:103CB00083B7817F846083BF83B7816083BF78943B
:103CC000889583B78E7F83BF88E10FB6F894809381
:103CD0006000109260000FBE0895CF930E947A0694
:103CE0000E94D5060E947B06C0E08C2F0E94EF0741
:103CF000892B29F4CF5FC530C1F780E001C081E096
:103D0000CF9108950C9427151F920F920FB60F9222
:103D100011248F939F93AF93BF938091B50181112D
:103D200013C08091B6019091B701A091B801B091F4
:103D3000B9014196A11DB11D8093B6019093B701C1
:103D4000A093B801B093B901BF91AF919F918F91AA
:103D50000F900FBE0F901F90189582E084BD93E0E6
:103D600095BD9AEF97BD80936E0008952FB7F89494
:103D70008091B6019091B701A091B801B091B901BD
:103D80002FBF08951F920F920FB60F9211248F9399
:103D90009F93AF93BF938091B6019091B701A0918B
:103DA000B801B091B9010196A11DB11D8093B60172
:103DB0009093B701A093B801B093B901BF91AF91AF
:103DC0009F918F910F900FBE0F901F9018950E949A
:103DD000C30CF8942FEF87EA91E621508040904081
:103DE000E1F700C0000087E090EBDC018093CB019D
:103DF0009093CC01A093CD01B093CE012CE088E14B
:103E000090E00FB6F894A895809360000FBE2093C1
:103E10006000FFCFCF92DF92EF92FF920F931F933C
:103E2000CF93DF93C82ED12C01E010E08D2D0E949E
:103E3000EF077C01C0E0D0E098010C2E02C0220FF9
:103E4000331F0A94E2F72E213F21232B29F42196D8
:103E5000CE30D10589F709C06C2F7D2D80E00E94FE
:103E60008806C812F4CF81E005C0D39485E0D8124B
:103E7000DDCF80E0DF91CF911F910F91FF90EF9008
:103E8000DF90CF900895CF93C82F8CE20E940A1F35
:103E9000882321F08C2FCF910C940A1F80E0CF91C2
:103EA0000895CF930E94A720811102C00E9487200D
:103EB0008CEA94E00E94D805C5E6C15049F00E9402
:103EC000D5068FE39CE90197F1F700C00000F5CF1C
:103ED00085EA94E00E94D80589E20E94431F81117F
:103EE00014C18AE20E94431F882321F00E94A1206E
:103EF0000E94872085E00E94431F81110E94E71ED7
:103F00000E94B2208093B40187E00E94431F88235F
:103F100099F18BE10E94431F882351F09091B401E5
:103F200091FB882780F921E0822780FB91F922C04C
:103F30008EE00E94431F882351F09091B40192FBC0
:103F4000882780F921E0822780FB92F913C080E165
:103F50000E94431F9091B401882341F093FB88276E
:103F600080F921E0822780FB93F904C0892F809596
:103F700080FB90F99093B4018091B4010E94B62027
:103F80000E94C4208093BD0180EE0E94431F8823BD
:103F900041F08091BD01982F909590FB80F980931E
:103FA000BD0189E30E94431F882359F09091BD0110
:103FB00091FB882780F921E0822780FB91F990937B
:103FC000BD0182EE0E94431F882359F09091BD01EC
:103FD00092FB882780F921E0822780FB92F9909359
:103FE000BD0186EE0E94431F882359F09091BD01C8
:103FF00093FB882780F921E0822780FB93F9909337
:10400000BD0183EE0E94431F882359F09091BD01AA
:1040100094FB882780F921E0822780FB94F9909314
:10402000BD0185E30E94431F882359F09091BD0193
:1040300095FB882780F921E0822780FB95F99093F2
:10404000BD0181E30E94431F882359F09091BD0177
:1040500096FB882780F921E0822780FB96F99093D0
:10406000BD0181E10E94431F882359F09091BD0159
:1040700097FB882780F921E0822780FB97F99093AE
:10408000BD018091BD010E94C8208091BD0187FBC8
:10409000882780F980930C0187E20E94431FC82F74
:1040A0008EE10E94431F8111C2608FE10E94431F75
:1040B0008111C46080E20E94431F8111C86081E2C7
:1040C0000E94431F8111C06182E20E94431F81113F
:1040D000C06283E20E94431F8111C06484E20E9497
:1040E000431F882311F0C06802C0CC2329F08C2F15
:1040F0000E94BF206C2F03C00E94BB20682F70E07D
:1041000080E090E0CF910C946319CF9108956DEE0B
:104110007EEF80E090E00E94742460E082E090E016
:104120000E94662460E083E090E00E94662460E0E4
:1041300084E090E00E94662460E085E090E00C94CA
:1041400066246FEF7FEF80E090E00C94742480E0B1
:1041500090E00E94602421E08D3E9E4F09F020E017
:10416000822F089582E090E00C945824682F82E01A
:1041700090E00C94662483E090E00C945824682F1F
:1041800083E090E00C94662484E090E00C94582442
:10419000682F84E090E00C946624CF93C82F88EEBB
:1041A00094E00E94D80560919A0170919B018091E2
:1041B0009C0190919D010E94C81D1F928F9325EE36
:1041C00034E03F932F930E94710680EE94E00E94AA
:1041D000D8051F92CF932DED34E03F932F930E948B
:1041E00071068BED94E00E94D80561E070E080E0FC
:1041F00090E004C0660F771F881F991FCA95D2F7F9
:104200000E9463198DB79EB708960FB6F8949EBFAB
:104210000FBE8DBFCF910C942715CF93482F50E040
:10422000FA013697E334F10508F0B4C2E059FF4FC4
:104230000C943E2481E09BE00E94D80589E398E03D
:104240000E94D8050E94BB201F928F9386E398E0BE
:104250009F938F930E94710684E398E00E94D80593
:104260000E94B220C82F81E298E00E94D8051F92D8
:10427000CF932CE138E03F932F930E9471068AE19F
:1042800098E00E94D80580E198E00E94D8058C2F24
:1042900081701F928F932DE038E03F932F930E94FF
:1042A00071068BE098E00E94D80581E098E00E94BA
:1042B000D805C1FB882780F91F928F932EEF37E036
:1042C0003F932F930E9471068CEF97E00E94D805D0
:1042D00080EF97E00E94D805C2FB882780F91F92E3
:1042E0008F932DEE37E03F932F930E9471068BEE54
:1042F00097E00E94D80582EE97E00E94D805C3FBA4
:10430000CC27C0F91F92CF938FED97E09F938F93A7
:104310000E9471068DED97E00E94D8050E94C4208E
:10432000C82F89EC97E00E94D8051F92CF9324EC08
:1043300037E03F932F930E94710682EC97E00E9432
:10434000D80589EA97E00E94D8058C2F81701F92CA
:104350008F9326EA37E03F932F930E9471068DB723
:104360009EB780960FB6F8949EBF0FBE8DBF84EAAD
:1043700097E00E94D8058DE897E00E94D805C1FB20
:10438000882780F91F928F932AE837E03F932F9375
:104390000E94710688E897E00E94D80586E797E0BA
:1043A0000E94D805C2FB882780F91F928F9323E7CC
:1043B00037E03F932F930E94710681E797E00E94B8
:1043C000D8058FE597E00E94D805C3FB882780F9C0
:1043D0001F928F932CE537E03F932F930E94710635
:1043E0008AE597E00E94D80580E597E00E94D8050D
:1043F000C4FB882780F91F928F932DE437E03F9309
:104400002F930E9471068BE497E00E94D80589E300
:1044100097E00E94D805C5FB882780F91F928F93EB
:1044200026E337E03F932F930E94710684E397E0E1
:104430000E94D80588E197E00E94D805C6FB88272E
:1044400080F91F928F9325E137E03F932F930E94CD
:10445000710683E197E00E94D8058BE097E00E9407
:10446000D805C7FBCC27C0F91F92CF9388E097E00F
:104470009F938F930E94710686E097E00E94D80573
:104480008DB79EB74C960FB6F8949EBF0FBE8DBFEA
:104490001DC00E949F0F892B79F00E949F0F90935F
:1044A000BB018093BA010E94271580E090E00E9432
:1044B0009A0F88EF9AE008C08091BA019091BB01F1
:1044C0000E949A0F8DEE9AE00E94D805C1E067C164
:1044D0008AEE96E00E94D80583ED96E00E94D8050A
:1044E0008BEB96E00E94D80583EA96E00E94D805FF
:1044F00089E896E00E94D80582E796E00E94D805F8
:1045000082E596E00E94D8058CE396E00E94D805EB
:104510008BE296E00E94D80583E196E00E94D805E0
:1045200083E096E00E94D80589EE95E00E94D805C8
:1045300080ED95E00E94D80587EB95E00E94D805B4
:104540008EE995E00E94D80585E895E00E94D8059F
:1045500084E695E00E94D80582E495E00E94D805A3
:1045600088E295E0B1CF8091B401817F8E7F809306
:10457000B4018CE095E00E94D8058FEF94E00E9492
:10458000D80588ED9AE00E94D80584ED9AE00E9453
:10459000D80581E08093BC0199CF0E9427158BEB51
:1045A0009AE00E94D8059FEF23ED80E391502040D0
:1045B0008040E1F700C000000E94E71E8BEA9AE00D
:1045C00083CF8091B401C82FC17080FF09C088E9F2
:1045D0009AE00E94D8058091B401817F8E7F44C00B
:1045E00086E89AE00E94D8058091B40181608093AA
:1045F000B4016CCF8091B40181FBCC27C0F991E06C
:10460000C927C0FB81F98093B401CC2319F08DE652
:104610009AE025C083E59AE057CF8091B40182FBF0
:10462000CC27C0F991E0C927C0FB82F98093B4017F
:10463000CC2319F088E39AE012C08CE19AE044CFD1
:104640008091B40183FBCC27C0F991E0C927C0FB5E
:1046500083F98093B401CC2351F084E09AE00E9466
:10466000D8058091B40181608093B40198C08BEE2D
:1046700099E02ACF84ED99E00E94D8058AEA99E072
:104680000E94D80584E799E00E94D80587E499E064
:104690000E94D80586E099E00E94D80588ED98E050
:1046A00013CF8091B6019091B701A091B801B0915C
:1046B000B901BF93AF939F938F9384EC98E09F933E
:1046C0008F930E9471060F900F900F900F900F9094
:1046D0000F90FCCE8EEA98E00E94D8050E94A40FAD
:1046E0001F928F9384E998E09F938F930E947106A5
:1046F00080910B011F928F938DE798E09F938F938A
:104700000E94710680914C011F928F938AE698E077
:104710009F938F930E9471068DB79EB70C960FB62C
:10472000F8949EBF0FBE8DBFD1CE0E942715C091B9
:104730000C0181E0C827C0930C01CC2329F08BE544
:1047400098E00E94D8052BC08BE498E0BDCE81E8AC
:1047500090E00E94F50F9FEF21EE84E09150204001
:104760008040E1F700C0000080E090E00E94F50F7B
:104770009FEF29E688E1915020408040E1F700C09A
:104780000000A4CE80E003C08D5101C089530E9477
:10479000CD209CCE89E498E00E94D805C0E08C2F03
:1047A000CF91089580E0089580E00895CF93C82FB9
:1047B0008091BC01882319F0813049F043C0E09119
:1047C0000D01F0910E0180818232F1F507C0E09178
:1047D0000D01F0910E018081823249F48C2F0E94EC
:1047E000D22381112CC08C2F0E940D2129C08C2F27
:1047F0000E94D423811123C0C431A9F018F4CB3016
:1048000029F018C0C93279F0C833A1F48CE095E0E2
:104810000E94D8058FEF94E00E94D80587ED94E0C0
:104820000E94D8050CC083EC94E00E94D805109239
:10483000BC010CC081EC94E00E94D80507C081E067
:10484000817006C01092BC0180E002C080E0F8CF09
:10485000CF91089597FB072E16F4009407D077FDAB
:1048600009D00E94442407FC05D03EF49095819520
:104870009F4F0895709561957F4F0895EE0FFF1F2C
:104880000590F491E02D0994AA1BBB1B51E107C0D0
:10489000AA1FBB1FA617B70710F0A61BB70B881FD0
:1048A000991F5A95A9F780959095BC01CD0108955F
:1048B000F999FECF92BD81BDF89A992780B50895E8
:1048C000A8E1B0E042E050E00C947B24262FF99957
:1048D000FECF1FBA92BD81BD20BD0FB6F894FA9AE3
:1048E000F99A0FBE019608950E946624272F0C9412
:1048F0006724DC01CB01FC01F999FECF06C0F2BDB3
:10490000E1BDF89A319600B40D9241505040B8F78D
:064910000895F894FFCFAA
:1049160005460805094908D2089E0801019F013F7E
:10492600362039F603C003A0036703F3020C032500
:044936000345030032
:00000001FF
